{
  "_format": "hh3-artifact-1",
  "contractName": "LiquidStakingVault",
  "sourceName": "contracts/LiquidStakingVault.sol",
  "abi": [
    {
      "inputs": [
        {
          "internalType": "address",
          "name": "_asset",
          "type": "address"
        },
        {
          "internalType": "string",
          "name": "_sharesName",
          "type": "string"
        },
        {
          "internalType": "string",
          "name": "_sharesSymbol",
          "type": "string"
        },
        {
          "internalType": "uint256",
          "name": "_unbondingPeriod",
          "type": "uint256"
        }
      ],
      "stateMutability": "nonpayable",
      "type": "constructor"
    },
    {
      "inputs": [
        {
          "internalType": "address",
          "name": "spender",
          "type": "address"
        },
        {
          "internalType": "uint256",
          "name": "allowance",
          "type": "uint256"
        },
        {
          "internalType": "uint256",
          "name": "needed",
          "type": "uint256"
        }
      ],
      "name": "ERC20InsufficientAllowance",
      "type": "error"
    },
    {
      "inputs": [
        {
          "internalType": "address",
          "name": "sender",
          "type": "address"
        },
        {
          "internalType": "uint256",
          "name": "balance",
          "type": "uint256"
        },
        {
          "internalType": "uint256",
          "name": "needed",
          "type": "uint256"
        }
      ],
      "name": "ERC20InsufficientBalance",
      "type": "error"
    },
    {
      "inputs": [
        {
          "internalType": "address",
          "name": "approver",
          "type": "address"
        }
      ],
      "name": "ERC20InvalidApprover",
      "type": "error"
    },
    {
      "inputs": [
        {
          "internalType": "address",
          "name": "receiver",
          "type": "address"
        }
      ],
      "name": "ERC20InvalidReceiver",
      "type": "error"
    },
    {
      "inputs": [
        {
          "internalType": "address",
          "name": "sender",
          "type": "address"
        }
      ],
      "name": "ERC20InvalidSender",
      "type": "error"
    },
    {
      "inputs": [
        {
          "internalType": "address",
          "name": "spender",
          "type": "address"
        }
      ],
      "name": "ERC20InvalidSpender",
      "type": "error"
    },
    {
      "inputs": [
        {
          "internalType": "address",
          "name": "owner",
          "type": "address"
        }
      ],
      "name": "OwnableInvalidOwner",
      "type": "error"
    },
    {
      "inputs": [
        {
          "internalType": "address",
          "name": "account",
          "type": "address"
        }
      ],
      "name": "OwnableUnauthorizedAccount",
      "type": "error"
    },
    {
      "inputs": [],
      "name": "ReentrancyGuardReentrantCall",
      "type": "error"
    },
    {
      "inputs": [
        {
          "internalType": "address",
          "name": "token",
          "type": "address"
        }
      ],
      "name": "SafeERC20FailedOperation",
      "type": "error"
    },
    {
      "anonymous": false,
      "inputs": [
        {
          "indexed": true,
          "internalType": "address",
          "name": "owner",
          "type": "address"
        },
        {
          "indexed": true,
          "internalType": "address",
          "name": "spender",
          "type": "address"
        },
        {
          "indexed": false,
          "internalType": "uint256",
          "name": "value",
          "type": "uint256"
        }
      ],
      "name": "Approval",
      "type": "event"
    },
    {
      "anonymous": false,
      "inputs": [
        {
          "indexed": true,
          "internalType": "address",
          "name": "user",
          "type": "address"
        },
        {
          "indexed": false,
          "internalType": "uint256",
          "name": "withdrawalId",
          "type": "uint256"
        },
        {
          "indexed": false,
          "internalType": "uint256",
          "name": "assetsPaid",
          "type": "uint256"
        }
      ],
      "name": "Claimed",
      "type": "event"
    },
    {
      "anonymous": false,
      "inputs": [
        {
          "indexed": true,
          "internalType": "address",
          "name": "user",
          "type": "address"
        },
        {
          "indexed": false,
          "internalType": "uint256",
          "name": "assets",
          "type": "uint256"
        },
        {
          "indexed": false,
          "internalType": "uint256",
          "name": "shares",
          "type": "uint256"
        }
      ],
      "name": "Deposited",
      "type": "event"
    },
    {
      "anonymous": false,
      "inputs": [
        {
          "indexed": true,
          "internalType": "address",
          "name": "by",
          "type": "address"
        },
        {
          "indexed": false,
          "internalType": "uint256",
          "name": "assets",
          "type": "uint256"
        }
      ],
      "name": "DistributedRewards",
      "type": "event"
    },
    {
      "anonymous": false,
      "inputs": [
        {
          "indexed": true,
          "internalType": "address",
          "name": "user",
          "type": "address"
        },
        {
          "indexed": false,
          "internalType": "uint256",
          "name": "sharesBurned",
          "type": "uint256"
        },
        {
          "indexed": false,
          "internalType": "uint256",
          "name": "assetsOwed",
          "type": "uint256"
        },
        {
          "indexed": false,
          "internalType": "uint256",
          "name": "withdrawalId",
          "type": "uint256"
        },
        {
          "indexed": false,
          "internalType": "uint256",
          "name": "availableAt",
          "type": "uint256"
        }
      ],
      "name": "InitiatedWithdraw",
      "type": "event"
    },
    {
      "anonymous": false,
      "inputs": [
        {
          "indexed": true,
          "internalType": "address",
          "name": "previousOwner",
          "type": "address"
        },
        {
          "indexed": true,
          "internalType": "address",
          "name": "newOwner",
          "type": "address"
        }
      ],
      "name": "OwnershipTransferred",
      "type": "event"
    },
    {
      "anonymous": false,
      "inputs": [
        {
          "indexed": true,
          "internalType": "address",
          "name": "from",
          "type": "address"
        },
        {
          "indexed": true,
          "internalType": "address",
          "name": "to",
          "type": "address"
        },
        {
          "indexed": false,
          "internalType": "uint256",
          "name": "value",
          "type": "uint256"
        }
      ],
      "name": "Transfer",
      "type": "event"
    },
    {
      "anonymous": false,
      "inputs": [
        {
          "indexed": false,
          "internalType": "uint256",
          "name": "oldPeriod",
          "type": "uint256"
        },
        {
          "indexed": false,
          "internalType": "uint256",
          "name": "newPeriod",
          "type": "uint256"
        }
      ],
      "name": "UnbondingPeriodUpdated",
      "type": "event"
    },
    {
      "inputs": [],
      "name": "WAD",
      "outputs": [
        {
          "internalType": "uint256",
          "name": "",
          "type": "uint256"
        }
      ],
      "stateMutability": "view",
      "type": "function"
    },
    {
      "inputs": [
        {
          "internalType": "address",
          "name": "owner",
          "type": "address"
        },
        {
          "internalType": "address",
          "name": "spender",
          "type": "address"
        }
      ],
      "name": "allowance",
      "outputs": [
        {
          "internalType": "uint256",
          "name": "",
          "type": "uint256"
        }
      ],
      "stateMutability": "view",
      "type": "function"
    },
    {
      "inputs": [
        {
          "internalType": "address",
          "name": "spender",
          "type": "address"
        },
        {
          "internalType": "uint256",
          "name": "value",
          "type": "uint256"
        }
      ],
      "name": "approve",
      "outputs": [
        {
          "internalType": "bool",
          "name": "",
          "type": "bool"
        }
      ],
      "stateMutability": "nonpayable",
      "type": "function"
    },
    {
      "inputs": [],
      "name": "asset",
      "outputs": [
        {
          "internalType": "contract IERC20",
          "name": "",
          "type": "address"
        }
      ],
      "stateMutability": "view",
      "type": "function"
    },
    {
      "inputs": [
        {
          "internalType": "uint256",
          "name": "assets",
          "type": "uint256"
        }
      ],
      "name": "assetsToShares",
      "outputs": [
        {
          "internalType": "uint256",
          "name": "",
          "type": "uint256"
        }
      ],
      "stateMutability": "view",
      "type": "function"
    },
    {
      "inputs": [
        {
          "internalType": "address",
          "name": "account",
          "type": "address"
        }
      ],
      "name": "balanceOf",
      "outputs": [
        {
          "internalType": "uint256",
          "name": "",
          "type": "uint256"
        }
      ],
      "stateMutability": "view",
      "type": "function"
    },
    {
      "inputs": [
        {
          "internalType": "uint256",
          "name": "withdrawalId",
          "type": "uint256"
        }
      ],
      "name": "claim",
      "outputs": [],
      "stateMutability": "nonpayable",
      "type": "function"
    },
    {
      "inputs": [],
      "name": "decimals",
      "outputs": [
        {
          "internalType": "uint8",
          "name": "",
          "type": "uint8"
        }
      ],
      "stateMutability": "view",
      "type": "function"
    },
    {
      "inputs": [
        {
          "internalType": "uint256",
          "name": "assets",
          "type": "uint256"
        }
      ],
      "name": "deposit",
      "outputs": [
        {
          "internalType": "uint256",
          "name": "shares",
          "type": "uint256"
        }
      ],
      "stateMutability": "nonpayable",
      "type": "function"
    },
    {
      "inputs": [
        {
          "internalType": "uint256",
          "name": "assets",
          "type": "uint256"
        }
      ],
      "name": "distributeRewards",
      "outputs": [],
      "stateMutability": "nonpayable",
      "type": "function"
    },
    {
      "inputs": [],
      "name": "exchangeRate",
      "outputs": [
        {
          "internalType": "uint256",
          "name": "",
          "type": "uint256"
        }
      ],
      "stateMutability": "view",
      "type": "function"
    },
    {
      "inputs": [],
      "name": "governanceExecutor",
      "outputs": [
        {
          "internalType": "address",
          "name": "",
          "type": "address"
        }
      ],
      "stateMutability": "view",
      "type": "function"
    },
    {
      "inputs": [
        {
          "internalType": "uint256",
          "name": "shares",
          "type": "uint256"
        }
      ],
      "name": "initiateWithdraw",
      "outputs": [
        {
          "internalType": "uint256",
          "name": "",
          "type": "uint256"
        }
      ],
      "stateMutability": "nonpayable",
      "type": "function"
    },
    {
      "inputs": [],
      "name": "lockedAssets",
      "outputs": [
        {
          "internalType": "uint256",
          "name": "",
          "type": "uint256"
        }
      ],
      "stateMutability": "view",
      "type": "function"
    },
    {
      "inputs": [],
      "name": "name",
      "outputs": [
        {
          "internalType": "string",
          "name": "",
          "type": "string"
        }
      ],
      "stateMutability": "view",
      "type": "function"
    },
    {
      "inputs": [],
      "name": "owner",
      "outputs": [
        {
          "internalType": "address",
          "name": "",
          "type": "address"
        }
      ],
      "stateMutability": "view",
      "type": "function"
    },
    {
      "inputs": [],
      "name": "renounceOwnership",
      "outputs": [],
      "stateMutability": "nonpayable",
      "type": "function"
    },
    {
      "inputs": [
        {
          "internalType": "address",
          "name": "_governanceExecutor",
          "type": "address"
        }
      ],
      "name": "setGovernanceExecutor",
      "outputs": [],
      "stateMutability": "nonpayable",
      "type": "function"
    },
    {
      "inputs": [
        {
          "internalType": "uint256",
          "name": "newPeriod",
          "type": "uint256"
        }
      ],
      "name": "setUnbondingPeriod",
      "outputs": [],
      "stateMutability": "nonpayable",
      "type": "function"
    },
    {
      "inputs": [
        {
          "internalType": "uint256",
          "name": "shares",
          "type": "uint256"
        }
      ],
      "name": "sharesToAssets",
      "outputs": [
        {
          "internalType": "uint256",
          "name": "",
          "type": "uint256"
        }
      ],
      "stateMutability": "view",
      "type": "function"
    },
    {
      "inputs": [],
      "name": "symbol",
      "outputs": [
        {
          "internalType": "string",
          "name": "",
          "type": "string"
        }
      ],
      "stateMutability": "view",
      "type": "function"
    },
    {
      "inputs": [],
      "name": "totalSupply",
      "outputs": [
        {
          "internalType": "uint256",
          "name": "",
          "type": "uint256"
        }
      ],
      "stateMutability": "view",
      "type": "function"
    },
    {
      "inputs": [
        {
          "internalType": "address",
          "name": "to",
          "type": "address"
        },
        {
          "internalType": "uint256",
          "name": "value",
          "type": "uint256"
        }
      ],
      "name": "transfer",
      "outputs": [
        {
          "internalType": "bool",
          "name": "",
          "type": "bool"
        }
      ],
      "stateMutability": "nonpayable",
      "type": "function"
    },
    {
      "inputs": [
        {
          "internalType": "address",
          "name": "from",
          "type": "address"
        },
        {
          "internalType": "address",
          "name": "to",
          "type": "address"
        },
        {
          "internalType": "uint256",
          "name": "value",
          "type": "uint256"
        }
      ],
      "name": "transferFrom",
      "outputs": [
        {
          "internalType": "bool",
          "name": "",
          "type": "bool"
        }
      ],
      "stateMutability": "nonpayable",
      "type": "function"
    },
    {
      "inputs": [
        {
          "internalType": "address",
          "name": "newOwner",
          "type": "address"
        }
      ],
      "name": "transferOwnership",
      "outputs": [],
      "stateMutability": "nonpayable",
      "type": "function"
    },
    {
      "inputs": [],
      "name": "unbondingPeriod",
      "outputs": [
        {
          "internalType": "uint256",
          "name": "",
          "type": "uint256"
        }
      ],
      "stateMutability": "view",
      "type": "function"
    },
    {
      "inputs": [],
      "name": "withdrawalNFT",
      "outputs": [
        {
          "internalType": "contract WithdrawalNFT",
          "name": "",
          "type": "address"
        }
      ],
      "stateMutability": "view",
      "type": "function"
    }
  ],
  "bytecode": "0x60a060405234801561000f575f5ffd5b50604051615e33380380615e33833981810160405281019061003191906104a8565b3383838160039081610043919061074b565b508060049081610053919061074b565b50505060016005819055505f73ffffffffffffffffffffffffffffffffffffffff168173ffffffffffffffffffffffffffffffffffffffff16036100ce575f6040517f1e4fbdf70000000000000000000000000000000000000000000000000000000081526004016100c59190610829565b60405180910390fd5b6100dd816101fe60201b60201c565b505f73ffffffffffffffffffffffffffffffffffffffff168473ffffffffffffffffffffffffffffffffffffffff160361014c576040517f08c379a00000000000000000000000000000000000000000000000000000000081526004016101439061089c565b60405180910390fd5b8373ffffffffffffffffffffffffffffffffffffffff1660808173ffffffffffffffffffffffffffffffffffffffff168152505080600881905550604051610193906102c1565b61019c9061094e565b604051809103905ff0801580156101b5573d5f5f3e3d5ffd5b5060095f6101000a81548173ffffffffffffffffffffffffffffffffffffffff021916908373ffffffffffffffffffffffffffffffffffffffff1602179055505050505061097f565b5f60065f9054906101000a900473ffffffffffffffffffffffffffffffffffffffff1690508160065f6101000a81548173ffffffffffffffffffffffffffffffffffffffff021916908373ffffffffffffffffffffffffffffffffffffffff1602179055508173ffffffffffffffffffffffffffffffffffffffff168173ffffffffffffffffffffffffffffffffffffffff167f8be0079c531659141344cd1fd0a4f28419497f9722a3daafe3b4186f6b6457e060405160405180910390a35050565b61290c8061352783390190565b5f604051905090565b5f5ffd5b5f5ffd5b5f73ffffffffffffffffffffffffffffffffffffffff82169050919050565b5f610308826102df565b9050919050565b610318816102fe565b8114610322575f5ffd5b50565b5f815190506103338161030f565b92915050565b5f5ffd5b5f5ffd5b5f601f19601f8301169050919050565b7f4e487b71000000000000000000000000000000000000000000000000000000005f52604160045260245ffd5b61038782610341565b810181811067ffffffffffffffff821117156103a6576103a5610351565b5b80604052505050565b5f6103b86102ce565b90506103c4828261037e565b919050565b5f67ffffffffffffffff8211156103e3576103e2610351565b5b6103ec82610341565b9050602081019050919050565b8281835e5f83830152505050565b5f610419610414846103c9565b6103af565b9050828152602081018484840111156104355761043461033d565b5b6104408482856103f9565b509392505050565b5f82601f83011261045c5761045b610339565b5b815161046c848260208601610407565b91505092915050565b5f819050919050565b61048781610475565b8114610491575f5ffd5b50565b5f815190506104a28161047e565b92915050565b5f5f5f5f608085870312156104c0576104bf6102d7565b5b5f6104cd87828801610325565b945050602085015167ffffffffffffffff8111156104ee576104ed6102db565b5b6104fa87828801610448565b935050604085015167ffffffffffffffff81111561051b5761051a6102db565b5b61052787828801610448565b925050606061053887828801610494565b91505092959194509250565b5f81519050919050565b7f4e487b71000000000000000000000000000000000000000000000000000000005f52602260045260245ffd5b5f600282049050600182168061059257607f821691505b6020821081036105a5576105a461054e565b5b50919050565b5f819050815f5260205f209050919050565b5f6020601f8301049050919050565b5f82821b905092915050565b5f600883026106077fffffffffffffffffffffffffffffffffffffffffffffffffffffffffffffffff826105cc565b61061186836105cc565b95508019841693508086168417925050509392505050565b5f819050919050565b5f61064c61064761064284610475565b610629565b610475565b9050919050565b5f819050919050565b61066583610632565b61067961067182610653565b8484546105d8565b825550505050565b5f5f905090565b610690610681565b61069b81848461065c565b505050565b5b818110156106be576106b35f82610688565b6001810190506106a1565b5050565b601f821115610703576106d4816105ab565b6106dd846105bd565b810160208510156106ec578190505b6107006106f8856105bd565b8301826106a0565b50505b505050565b5f82821c905092915050565b5f6107235f1984600802610708565b1980831691505092915050565b5f61073b8383610714565b9150826002028217905092915050565b61075482610544565b67ffffffffffffffff81111561076d5761076c610351565b5b610777825461057b565b6107828282856106c2565b5f60209050601f8311600181146107b3575f84156107a1578287015190505b6107ab8582610730565b865550610812565b601f1984166107c1866105ab565b5f5b828110156107e8578489015182556001820191506020850194506020810190506107c3565b868310156108055784890151610801601f891682610714565b8355505b6001600288020188555050505b505050505050565b610823816102fe565b82525050565b5f60208201905061083c5f83018461081a565b92915050565b5f82825260208201905092915050565b7f61737365743d30000000000000000000000000000000000000000000000000005f82015250565b5f610886600783610842565b915061089182610852565b602082019050919050565b5f6020820190508181035f8301526108b38161087a565b9050919050565b7f4c53542d576974686472617700000000000000000000000000000000000000005f82015250565b5f6108ee600c83610842565b91506108f9826108ba565b602082019050919050565b7f4c535457000000000000000000000000000000000000000000000000000000005f82015250565b5f610938600483610842565b915061094382610904565b602082019050919050565b5f6040820190508181035f830152610965816108e2565b905081810360208301526109788161092c565b9050919050565b608051612b6d6109ba5f395f8181610af901528181610b9c01528181610be501528181610d0f01528181610ee101526112840152612b6d5ff3fe608060405234801561000f575f5ffd5b50600436106101a7575f3560e01c80636cf6d675116100f75780638fc9838611610095578063b6b55f251161006f578063b6b55f25146104ad578063dd62ed3e146104dd578063e0b231fa1461050d578063f2fde38b1461053d576101a7565b80638fc983861461044157806395d89b411461045f578063a9059cbb1461047d576101a7565b80637e108d52116100d15780637e108d52146103a55780637fe0c850146103d557806383453945146104055780638da5cb5b14610423576101a7565b80636cf6d6751461034d57806370a082311461036b578063715018a61461039b576101a7565b8063274fc72a1161016457806338d52e0f1161013e57806338d52e0f146102d75780633ba0b9a9146102f557806359974e38146103135780636a1460241461032f576101a7565b8063274fc72a1461027f578063313ce5671461029d578063379607f5146102bb576101a7565b806306fdde03146101ab578063095ea7b3146101c95780630f300300146101f9578063114eaf551461021557806318160ddd1461023157806323b872dd1461024f575b5f5ffd5b6101b3610559565b6040516101c09190612068565b60405180910390f35b6101e360048036038101906101de9190612119565b6105e9565b6040516101f09190612171565b60405180910390f35b610213600480360381019061020e919061218a565b61060b565b005b61022f600480360381019061022a91906121b5565b6106c4565b005b610239610798565b60405161024691906121ef565b60405180910390f35b61026960048036038101906102649190612208565b6107a1565b6040516102769190612171565b60405180910390f35b6102876107cf565b60405161029491906121ef565b60405180910390f35b6102a56107d5565b6040516102b29190612273565b60405180910390f35b6102d560048036038101906102d091906121b5565b6107dd565b005b6102df610b9a565b6040516102ec91906122e7565b60405180910390f35b6102fd610bbe565b60405161030a91906121ef565b60405180910390f35b61032d600480360381019061032891906121b5565b610cbd565b005b610337610dad565b60405161034491906121ef565b60405180910390f35b610355610db9565b60405161036291906121ef565b60405180910390f35b6103856004803603810190610380919061218a565b610dbf565b60405161039291906121ef565b60405180910390f35b6103a3610e04565b005b6103bf60048036038101906103ba91906121b5565b610e17565b6040516103cc91906121ef565b60405180910390f35b6103ef60048036038101906103ea91906121b5565b6110d5565b6040516103fc91906121ef565b60405180910390f35b61040d61110d565b60405161041a9190612320565b60405180910390f35b61042b611132565b6040516104389190612348565b60405180910390f35b61044961115a565b6040516104569190612348565b60405180910390f35b61046761117f565b6040516104749190612068565b60405180910390f35b61049760048036038101906104929190612119565b61120f565b6040516104a49190612171565b60405180910390f35b6104c760048036038101906104c291906121b5565b611231565b6040516104d491906121ef565b60405180910390f35b6104f760048036038101906104f29190612361565b6113b4565b60405161050491906121ef565b60405180910390f35b610527600480360381019061052291906121b5565b611436565b60405161053491906121ef565b60405180910390f35b6105576004803603810190610552919061218a565b61148b565b005b606060038054610568906123cc565b80601f0160208091040260200160405190810160405280929190818152602001828054610594906123cc565b80156105df5780601f106105b6576101008083540402835291602001916105df565b820191905f5260205f20905b8154815290600101906020018083116105c257829003601f168201915b5050505050905090565b5f5f6105f361150f565b9050610600818585611516565b600191505092915050565b610613611528565b5f73ffffffffffffffffffffffffffffffffffffffff168173ffffffffffffffffffffffffffffffffffffffff1603610681576040517f08c379a000000000000000000000000000000000000000000000000000000000815260040161067890612446565b60405180910390fd5b80600a5f6101000a81548173ffffffffffffffffffffffffffffffffffffffff021916908373ffffffffffffffffffffffffffffffffffffffff16021790555050565b600a5f9054906101000a900473ffffffffffffffffffffffffffffffffffffffff1673ffffffffffffffffffffffffffffffffffffffff163373ffffffffffffffffffffffffffffffffffffffff1614610753576040517f08c379a000000000000000000000000000000000000000000000000000000000815260040161074a906124ae565b60405180910390fd5b7f1e87d1842527009d17fe588925d65dbeda5a9a83282ca9b691d6e4a522ae716f600854826040516107869291906124cc565b60405180910390a18060088190555050565b5f600254905090565b5f5f6107ab61150f565b90506107b88582856115af565b6107c3858585611642565b60019150509392505050565b60075481565b5f6012905090565b6107e5611732565b3373ffffffffffffffffffffffffffffffffffffffff1660095f9054906101000a900473ffffffffffffffffffffffffffffffffffffffff1673ffffffffffffffffffffffffffffffffffffffff16636352211e836040518263ffffffff1660e01b815260040161085691906121ef565b602060405180830381865afa158015610871573d5f5f3e3d5ffd5b505050506040513d601f19601f820116820180604052508101906108959190612507565b73ffffffffffffffffffffffffffffffffffffffff16146108eb576040517f08c379a00000000000000000000000000000000000000000000000000000000081526004016108e29061257c565b60405180910390fd5b5f5f60095f9054906101000a900473ffffffffffffffffffffffffffffffffffffffff1673ffffffffffffffffffffffffffffffffffffffff16638a4fb16a846040518263ffffffff1660e01b815260040161094791906121ef565b6040805180830381865afa158015610961573d5f5f3e3d5ffd5b505050506040513d601f19601f8201168201806040525081019061098591906125ae565b91509150804210156109cc576040517f08c379a00000000000000000000000000000000000000000000000000000000081526004016109c390612636565b60405180910390fd5b5f8211610a0e576040517f08c379a0000000000000000000000000000000000000000000000000000000008152600401610a059061269e565b60405180910390fd5b60095f9054906101000a900473ffffffffffffffffffffffffffffffffffffffff1673ffffffffffffffffffffffffffffffffffffffff166380736be2846040518263ffffffff1660e01b8152600401610a6891906121ef565b5f604051808303815f87803b158015610a7f575f5ffd5b505af1158015610a91573d5f5f3e3d5ffd5b50505050816007541015610ada576040517f08c379a0000000000000000000000000000000000000000000000000000000008152600401610ad190612706565b60405180910390fd5b8160075f828254610aeb9190612751565b92505081905550610b3d33837f000000000000000000000000000000000000000000000000000000000000000073ffffffffffffffffffffffffffffffffffffffff166117789092919063ffffffff16565b3373ffffffffffffffffffffffffffffffffffffffff167f987d620f307ff6b94d58743cb7a7509f24071586a77759b77c2d4e29f75a2f9a8484604051610b859291906124cc565b60405180910390a25050610b976117f7565b50565b7f000000000000000000000000000000000000000000000000000000000000000081565b5f5f610bc8610798565b90505f8103610be257670de0b6b3a7640000915050610cba565b5f7f000000000000000000000000000000000000000000000000000000000000000073ffffffffffffffffffffffffffffffffffffffff166370a08231306040518263ffffffff1660e01b8152600401610c3c9190612348565b602060405180830381865afa158015610c57573d5f5f3e3d5ffd5b505050506040513d601f19601f82011682018060405250810190610c7b9190612784565b90506007548111610c90575f92505050610cba565b5f60075482610c9f9190612751565b9050610cb481670de0b6b3a764000085611801565b93505050505b90565b610cc5611732565b5f8111610d07576040517f08c379a0000000000000000000000000000000000000000000000000000000008152600401610cfe906127f9565b60405180910390fd5b610d543330837f000000000000000000000000000000000000000000000000000000000000000073ffffffffffffffffffffffffffffffffffffffff166118e0909392919063ffffffff16565b3373ffffffffffffffffffffffffffffffffffffffff167f0be934154273ab5bf3a024f88561955bee89ea6d9aac33477620b101ca5704d982604051610d9a91906121ef565b60405180910390a2610daa6117f7565b50565b670de0b6b3a764000081565b60085481565b5f5f5f8373ffffffffffffffffffffffffffffffffffffffff1673ffffffffffffffffffffffffffffffffffffffff1681526020019081526020015f20549050919050565b610e0c611528565b610e155f611962565b565b5f610e20611732565b5f8211610e62576040517f08c379a0000000000000000000000000000000000000000000000000000000008152600401610e5990612861565b60405180910390fd5b5f610e6c33610dbf565b905082811015610eb1576040517f08c379a0000000000000000000000000000000000000000000000000000000008152600401610ea8906128c9565b60405180910390fd5b5f610ebb846110d5565b9050610ec73385611a25565b8060075f828254610ed891906128e7565b925050819055507f000000000000000000000000000000000000000000000000000000000000000073ffffffffffffffffffffffffffffffffffffffff166370a08231306040518263ffffffff1660e01b8152600401610f389190612348565b602060405180830381865afa158015610f53573d5f5f3e3d5ffd5b505050506040513d601f19601f82011682018060405250810190610f779190612784565b6007541115610fbb576040517f08c379a0000000000000000000000000000000000000000000000000000000008152600401610fb29061298a565b60405180910390fd5b5f60085442610fca91906128e7565b90505f60095f9054906101000a900473ffffffffffffffffffffffffffffffffffffffff1673ffffffffffffffffffffffffffffffffffffffff1663227f06cc3385856040518463ffffffff1660e01b815260040161102b939291906129a8565b6020604051808303815f875af1158015611047573d5f5f3e3d5ffd5b505050506040513d601f19601f8201168201806040525081019061106b9190612784565b90503373ffffffffffffffffffffffffffffffffffffffff167fb37300a9c17bc336bfb65a440bf0452cbacf7f3c625bf93f721405b07a7b26af878584866040516110b994939291906129dd565b60405180910390a2809450505050506110d06117f7565b919050565b5f5f6110df610bbe565b90505f81036110f1575f915050611108565b6111048382670de0b6b3a7640000611801565b9150505b919050565b60095f9054906101000a900473ffffffffffffffffffffffffffffffffffffffff1681565b5f60065f9054906101000a900473ffffffffffffffffffffffffffffffffffffffff16905090565b600a5f9054906101000a900473ffffffffffffffffffffffffffffffffffffffff1681565b60606004805461118e906123cc565b80601f01602080910402602001604051908101604052809291908181526020018280546111ba906123cc565b80156112055780601f106111dc57610100808354040283529160200191611205565b820191905f5260205f20905b8154815290600101906020018083116111e857829003601f168201915b5050505050905090565b5f5f61121961150f565b9050611226818585611642565b600191505092915050565b5f61123a611732565b5f821161127c576040517f08c379a0000000000000000000000000000000000000000000000000000000008152600401611273906127f9565b60405180910390fd5b6112c93330847f000000000000000000000000000000000000000000000000000000000000000073ffffffffffffffffffffffffffffffffffffffff166118e0909392919063ffffffff16565b5f6112d2610798565b90505f5f82036112e457839050611348565b5f6112ed610bbe565b905061130285670de0b6b3a764000083611801565b91505f8211611346576040517f08c379a000000000000000000000000000000000000000000000000000000000815260040161133d90612a90565b60405180910390fd5b505b6113523382611aa4565b3373ffffffffffffffffffffffffffffffffffffffff167f73a19dd210f1a7f902193214c0ee91dd35ee5b4d920cba8d519eca65a7b488ca858360405161139a9291906124cc565b60405180910390a280925050506113af6117f7565b919050565b5f60015f8473ffffffffffffffffffffffffffffffffffffffff1673ffffffffffffffffffffffffffffffffffffffff1681526020019081526020015f205f8373ffffffffffffffffffffffffffffffffffffffff1673ffffffffffffffffffffffffffffffffffffffff1681526020019081526020015f2054905092915050565b5f5f611440610798565b90505f81036114525782915050611486565b5f61145b610bbe565b90505f810361146e575f92505050611486565b61148184670de0b6b3a764000083611801565b925050505b919050565b611493611528565b5f73ffffffffffffffffffffffffffffffffffffffff168173ffffffffffffffffffffffffffffffffffffffff1603611503575f6040517f1e4fbdf70000000000000000000000000000000000000000000000000000000081526004016114fa9190612348565b60405180910390fd5b61150c81611962565b50565b5f33905090565b6115238383836001611b23565b505050565b61153061150f565b73ffffffffffffffffffffffffffffffffffffffff1661154e611132565b73ffffffffffffffffffffffffffffffffffffffff16146115ad5761157161150f565b6040517f118cdaa70000000000000000000000000000000000000000000000000000000081526004016115a49190612348565b60405180910390fd5b565b5f6115ba84846113b4565b90507fffffffffffffffffffffffffffffffffffffffffffffffffffffffffffffffff81101561163c578181101561162d578281836040517ffb8f41b2000000000000000000000000000000000000000000000000000000008152600401611624939291906129a8565b60405180910390fd5b61163b84848484035f611b23565b5b50505050565b5f73ffffffffffffffffffffffffffffffffffffffff168373ffffffffffffffffffffffffffffffffffffffff16036116b2575f6040517f96c6fd1e0000000000000000000000000000000000000000000000000000000081526004016116a99190612348565b60405180910390fd5b5f73ffffffffffffffffffffffffffffffffffffffff168273ffffffffffffffffffffffffffffffffffffffff1603611722575f6040517fec442f050000000000000000000000000000000000000000000000000000000081526004016117199190612348565b60405180910390fd5b61172d838383611cf2565b505050565b60026005540361176e576040517f3ee5aeb500000000000000000000000000000000000000000000000000000000815260040160405180910390fd5b6002600581905550565b6117f2838473ffffffffffffffffffffffffffffffffffffffff1663a9059cbb85856040516024016117ab929190612aae565b604051602081830303815290604052915060e01b6020820180517bffffffffffffffffffffffffffffffffffffffffffffffffffffffff8381831617835250505050611f0b565b505050565b6001600581905550565b5f5f5f61180e8686611fa6565b915091505f82036118335783818161182957611828612ad5565b5b04925050506118d9565b8184116118525761185161184c5f861460126011611fc3565b611fdc565b5b5f8486880990508181118303925080820391505f855f038616905080860495508083049250600181825f0304019050808402831792505f600287600302189050808702600203810290508087026002038102905080870260020381029050808702600203810290508087026002038102905080870260020381029050808402955050505050505b9392505050565b61195c848573ffffffffffffffffffffffffffffffffffffffff166323b872dd86868660405160240161191593929190612b02565b604051602081830303815290604052915060e01b6020820180517bffffffffffffffffffffffffffffffffffffffffffffffffffffffff8381831617835250505050611f0b565b50505050565b5f60065f9054906101000a900473ffffffffffffffffffffffffffffffffffffffff1690508160065f6101000a81548173ffffffffffffffffffffffffffffffffffffffff021916908373ffffffffffffffffffffffffffffffffffffffff1602179055508173ffffffffffffffffffffffffffffffffffffffff168173ffffffffffffffffffffffffffffffffffffffff167f8be0079c531659141344cd1fd0a4f28419497f9722a3daafe3b4186f6b6457e060405160405180910390a35050565b5f73ffffffffffffffffffffffffffffffffffffffff168273ffffffffffffffffffffffffffffffffffffffff1603611a95575f6040517f96c6fd1e000000000000000000000000000000000000000000000000000000008152600401611a8c9190612348565b60405180910390fd5b611aa0825f83611cf2565b5050565b5f73ffffffffffffffffffffffffffffffffffffffff168273ffffffffffffffffffffffffffffffffffffffff1603611b14575f6040517fec442f05000000000000000000000000000000000000000000000000000000008152600401611b0b9190612348565b60405180910390fd5b611b1f5f8383611cf2565b5050565b5f73ffffffffffffffffffffffffffffffffffffffff168473ffffffffffffffffffffffffffffffffffffffff1603611b93575f6040517fe602df05000000000000000000000000000000000000000000000000000000008152600401611b8a9190612348565b60405180910390fd5b5f73ffffffffffffffffffffffffffffffffffffffff168373ffffffffffffffffffffffffffffffffffffffff1603611c03575f6040517f94280d62000000000000000000000000000000000000000000000000000000008152600401611bfa9190612348565b60405180910390fd5b8160015f8673ffffffffffffffffffffffffffffffffffffffff1673ffffffffffffffffffffffffffffffffffffffff1681526020019081526020015f205f8573ffffffffffffffffffffffffffffffffffffffff1673ffffffffffffffffffffffffffffffffffffffff1681526020019081526020015f20819055508015611cec578273ffffffffffffffffffffffffffffffffffffffff168473ffffffffffffffffffffffffffffffffffffffff167f8c5be1e5ebec7d5bd14f71427d1e84f3dd0314c0f7b2291e5b200ac8c7c3b92584604051611ce391906121ef565b60405180910390a35b50505050565b5f73ffffffffffffffffffffffffffffffffffffffff168373ffffffffffffffffffffffffffffffffffffffff1603611d42578060025f828254611d3691906128e7565b92505081905550611e10565b5f5f5f8573ffffffffffffffffffffffffffffffffffffffff1673ffffffffffffffffffffffffffffffffffffffff1681526020019081526020015f2054905081811015611dcb578381836040517fe450d38c000000000000000000000000000000000000000000000000000000008152600401611dc2939291906129a8565b60405180910390fd5b8181035f5f8673ffffffffffffffffffffffffffffffffffffffff1673ffffffffffffffffffffffffffffffffffffffff1681526020019081526020015f2081905550505b5f73ffffffffffffffffffffffffffffffffffffffff168273ffffffffffffffffffffffffffffffffffffffff1603611e57578060025f8282540392505081905550611ea1565b805f5f8473ffffffffffffffffffffffffffffffffffffffff1673ffffffffffffffffffffffffffffffffffffffff1681526020019081526020015f205f82825401925050819055505b8173ffffffffffffffffffffffffffffffffffffffff168373ffffffffffffffffffffffffffffffffffffffff167fddf252ad1be2c89b69c2b068fc378daa952ba7f163c4a11628f55a4df523b3ef83604051611efe91906121ef565b60405180910390a3505050565b5f5f60205f8451602086015f885af180611f2a576040513d5f823e3d81fd5b3d92505f519150505f8214611f43576001811415611f5e565b5f8473ffffffffffffffffffffffffffffffffffffffff163b145b15611fa057836040517f5274afe7000000000000000000000000000000000000000000000000000000008152600401611f979190612348565b60405180910390fd5b50505050565b5f5f5f198385098385029150818110828203039250509250929050565b5f611fcd84611fed565b82841802821890509392505050565b634e487b715f52806020526024601cfd5b5f8115159050919050565b5f81519050919050565b5f82825260208201905092915050565b8281835e5f83830152505050565b5f601f19601f8301169050919050565b5f61203a82611ff8565b6120448185612002565b9350612054818560208601612012565b61205d81612020565b840191505092915050565b5f6020820190508181035f8301526120808184612030565b905092915050565b5f5ffd5b5f73ffffffffffffffffffffffffffffffffffffffff82169050919050565b5f6120b58261208c565b9050919050565b6120c5816120ab565b81146120cf575f5ffd5b50565b5f813590506120e0816120bc565b92915050565b5f819050919050565b6120f8816120e6565b8114612102575f5ffd5b50565b5f81359050612113816120ef565b92915050565b5f5f6040838503121561212f5761212e612088565b5b5f61213c858286016120d2565b925050602061214d85828601612105565b9150509250929050565b5f8115159050919050565b61216b81612157565b82525050565b5f6020820190506121845f830184612162565b92915050565b5f6020828403121561219f5761219e612088565b5b5f6121ac848285016120d2565b91505092915050565b5f602082840312156121ca576121c9612088565b5b5f6121d784828501612105565b91505092915050565b6121e9816120e6565b82525050565b5f6020820190506122025f8301846121e0565b92915050565b5f5f5f6060848603121561221f5761221e612088565b5b5f61222c868287016120d2565b935050602061223d868287016120d2565b925050604061224e86828701612105565b9150509250925092565b5f60ff82169050919050565b61226d81612258565b82525050565b5f6020820190506122865f830184612264565b92915050565b5f819050919050565b5f6122af6122aa6122a58461208c565b61228c565b61208c565b9050919050565b5f6122c082612295565b9050919050565b5f6122d1826122b6565b9050919050565b6122e1816122c7565b82525050565b5f6020820190506122fa5f8301846122d8565b92915050565b5f61230a826122b6565b9050919050565b61231a81612300565b82525050565b5f6020820190506123335f830184612311565b92915050565b612342816120ab565b82525050565b5f60208201905061235b5f830184612339565b92915050565b5f5f6040838503121561237757612376612088565b5b5f612384858286016120d2565b9250506020612395858286016120d2565b9150509250929050565b7f4e487b71000000000000000000000000000000000000000000000000000000005f52602260045260245ffd5b5f60028204905060018216806123e357607f821691505b6020821081036123f6576123f561239f565b5b50919050565b7f676f7665726e616e63653d3000000000000000000000000000000000000000005f82015250565b5f612430600c83612002565b915061243b826123fc565b602082019050919050565b5f6020820190508181035f83015261245d81612424565b9050919050565b7f6f6e6c7920676f7665726e616e636500000000000000000000000000000000005f82015250565b5f612498600f83612002565b91506124a382612464565b602082019050919050565b5f6020820190508181035f8301526124c58161248c565b9050919050565b5f6040820190506124df5f8301856121e0565b6124ec60208301846121e0565b9392505050565b5f81519050612501816120bc565b92915050565b5f6020828403121561251c5761251b612088565b5b5f612529848285016124f3565b91505092915050565b7f6e6f74206f776e657200000000000000000000000000000000000000000000005f82015250565b5f612566600983612002565b915061257182612532565b602082019050919050565b5f6020820190508181035f8301526125938161255a565b9050919050565b5f815190506125a8816120ef565b92915050565b5f5f604083850312156125c4576125c3612088565b5b5f6125d18582860161259a565b92505060206125e28582860161259a565b9150509250929050565b7f6e6f742079657420617661696c61626c650000000000000000000000000000005f82015250565b5f612620601183612002565b915061262b826125ec565b602082019050919050565b5f6020820190508181035f83015261264d81612614565b9050919050565b7f6e6f7468696e67206f77656400000000000000000000000000000000000000005f82015250565b5f612688600c83612002565b915061269382612654565b602082019050919050565b5f6020820190508181035f8301526126b58161267c565b9050919050565b7f6c6f636b656441737365747320756e646572666c6f77000000000000000000005f82015250565b5f6126f0601683612002565b91506126fb826126bc565b602082019050919050565b5f6020820190508181035f83015261271d816126e4565b9050919050565b7f4e487b71000000000000000000000000000000000000000000000000000000005f52601160045260245ffd5b5f61275b826120e6565b9150612766836120e6565b925082820390508181111561277e5761277d612724565b5b92915050565b5f6020828403121561279957612798612088565b5b5f6127a68482850161259a565b91505092915050565b7f7a65726f206173736574730000000000000000000000000000000000000000005f82015250565b5f6127e3600b83612002565b91506127ee826127af565b602082019050919050565b5f6020820190508181035f830152612810816127d7565b9050919050565b7f7a65726f207368617265730000000000000000000000000000000000000000005f82015250565b5f61284b600b83612002565b915061285682612817565b602082019050919050565b5f6020820190508181035f8301526128788161283f565b9050919050565b7f696e73756666696369656e7420736861726573000000000000000000000000005f82015250565b5f6128b3601383612002565b91506128be8261287f565b602082019050919050565b5f6020820190508181035f8301526128e0816128a7565b9050919050565b5f6128f1826120e6565b91506128fc836120e6565b925082820190508082111561291457612913612724565b5b92915050565b7f696e73756666696369656e742061737365742062616c616e63652061667465725f8201527f206c6f636b000000000000000000000000000000000000000000000000000000602082015250565b5f612974602583612002565b915061297f8261291a565b604082019050919050565b5f6020820190508181035f8301526129a181612968565b9050919050565b5f6060820190506129bb5f830186612339565b6129c860208301856121e0565b6129d560408301846121e0565b949350505050565b5f6080820190506129f05f8301876121e0565b6129fd60208301866121e0565b612a0a60408301856121e0565b612a1760608301846121e0565b95945050505050565b7f696e73756666696369656e742061737365747320746f206d696e7420736861725f8201527f6573000000000000000000000000000000000000000000000000000000000000602082015250565b5f612a7a602283612002565b9150612a8582612a20565b604082019050919050565b5f6020820190508181035f830152612aa781612a6e565b9050919050565b5f604082019050612ac15f830185612339565b612ace60208301846121e0565b9392505050565b7f4e487b71000000000000000000000000000000000000000000000000000000005f52601260045260245ffd5b5f606082019050612b155f830186612339565b612b226020830185612339565b612b2f60408301846121e0565b94935050505056fea2646970667358221220aea615d909baa56f875225bf31496c3928abe312efd4a29132e207201a2b352a64736f6c634300081c003360806040525f600755348015610013575f5ffd5b5060405161290c38038061290c833981810160405281019061003591906102f0565b338282815f90816100469190610576565b5080600190816100569190610576565b5050505f73ffffffffffffffffffffffffffffffffffffffff168173ffffffffffffffffffffffffffffffffffffffff16036100c9575f6040517f1e4fbdf70000000000000000000000000000000000000000000000000000000081526004016100c09190610684565b60405180910390fd5b6100d8816100e060201b60201c565b50505061069d565b5f60065f9054906101000a900473ffffffffffffffffffffffffffffffffffffffff1690508160065f6101000a81548173ffffffffffffffffffffffffffffffffffffffff021916908373ffffffffffffffffffffffffffffffffffffffff1602179055508173ffffffffffffffffffffffffffffffffffffffff168173ffffffffffffffffffffffffffffffffffffffff167f8be0079c531659141344cd1fd0a4f28419497f9722a3daafe3b4186f6b6457e060405160405180910390a35050565b5f604051905090565b5f5ffd5b5f5ffd5b5f5ffd5b5f5ffd5b5f601f19601f8301169050919050565b7f4e487b71000000000000000000000000000000000000000000000000000000005f52604160045260245ffd5b610202826101bc565b810181811067ffffffffffffffff82111715610221576102206101cc565b5b80604052505050565b5f6102336101a3565b905061023f82826101f9565b919050565b5f67ffffffffffffffff82111561025e5761025d6101cc565b5b610267826101bc565b9050602081019050919050565b8281835e5f83830152505050565b5f61029461028f84610244565b61022a565b9050828152602081018484840111156102b0576102af6101b8565b5b6102bb848285610274565b509392505050565b5f82601f8301126102d7576102d66101b4565b5b81516102e7848260208601610282565b91505092915050565b5f5f60408385031215610306576103056101ac565b5b5f83015167ffffffffffffffff811115610323576103226101b0565b5b61032f858286016102c3565b925050602083015167ffffffffffffffff8111156103505761034f6101b0565b5b61035c858286016102c3565b9150509250929050565b5f81519050919050565b7f4e487b71000000000000000000000000000000000000000000000000000000005f52602260045260245ffd5b5f60028204905060018216806103b457607f821691505b6020821081036103c7576103c6610370565b5b50919050565b5f819050815f5260205f209050919050565b5f6020601f8301049050919050565b5f82821b905092915050565b5f600883026104297fffffffffffffffffffffffffffffffffffffffffffffffffffffffffffffffff826103ee565b61043386836103ee565b95508019841693508086168417925050509392505050565b5f819050919050565b5f819050919050565b5f61047761047261046d8461044b565b610454565b61044b565b9050919050565b5f819050919050565b6104908361045d565b6104a461049c8261047e565b8484546103fa565b825550505050565b5f5f905090565b6104bb6104ac565b6104c6818484610487565b505050565b5b818110156104e9576104de5f826104b3565b6001810190506104cc565b5050565b601f82111561052e576104ff816103cd565b610508846103df565b81016020851015610517578190505b61052b610523856103df565b8301826104cb565b50505b505050565b5f82821c905092915050565b5f61054e5f1984600802610533565b1980831691505092915050565b5f610566838361053f565b9150826002028217905092915050565b61057f82610366565b67ffffffffffffffff811115610598576105976101cc565b5b6105a2825461039d565b6105ad8282856104ed565b5f60209050601f8311600181146105de575f84156105cc578287015190505b6105d6858261055b565b86555061063d565b601f1984166105ec866103cd565b5f5b82811015610613578489015182556001820191506020850194506020810190506105ee565b86831015610630578489015161062c601f89168261053f565b8355505b6001600288020188555050505b505050505050565b5f73ffffffffffffffffffffffffffffffffffffffff82169050919050565b5f61066e82610645565b9050919050565b61067e81610664565b82525050565b5f6020820190506106975f830184610675565b92915050565b612262806106aa5f395ff3fe608060405234801561000f575f5ffd5b506004361061011f575f3560e01c8063715018a6116100ab578063a22cb4651161006f578063a22cb46514610318578063b88d4fde14610334578063c87b56dd14610350578063e985e9c514610380578063f2fde38b146103b05761011f565b8063715018a61461028557806380736be21461028f5780638a4fb16a146102ab5780638da5cb5b146102dc57806395d89b41146102fa5761011f565b8063227f06cc116100f2578063227f06cc146101bd57806323b872dd146101ed57806342842e0e146102095780636352211e1461022557806370a08231146102555761011f565b806301ffc9a71461012357806306fdde0314610153578063081812fc14610171578063095ea7b3146101a1575b5f5ffd5b61013d60048036038101906101389190611a36565b6103cc565b60405161014a9190611a7b565b60405180910390f35b61015b6104ad565b6040516101689190611b04565b60405180910390f35b61018b60048036038101906101869190611b57565b61053c565b6040516101989190611bc1565b60405180910390f35b6101bb60048036038101906101b69190611c04565b610557565b005b6101d760048036038101906101d29190611c42565b61056d565b6040516101e49190611ca1565b60405180910390f35b61020760048036038101906102029190611cba565b6105e5565b005b610223600480360381019061021e9190611cba565b6106e4565b005b61023f600480360381019061023a9190611b57565b610703565b60405161024c9190611bc1565b60405180910390f35b61026f600480360381019061026a9190611d0a565b610714565b60405161027c9190611ca1565b60405180910390f35b61028d6107ca565b005b6102a960048036038101906102a49190611b57565b6107dd565b005b6102c560048036038101906102c09190611b57565b610812565b6040516102d3929190611d35565b60405180910390f35b6102e4610859565b6040516102f19190611bc1565b60405180910390f35b610302610881565b60405161030f9190611b04565b60405180910390f35b610332600480360381019061032d9190611d86565b610911565b005b61034e60048036038101906103499190611ef0565b610927565b005b61036a60048036038101906103659190611b57565b61094c565b6040516103779190611b04565b60405180910390f35b61039a60048036038101906103959190611f70565b6109b2565b6040516103a79190611a7b565b60405180910390f35b6103ca60048036038101906103c59190611d0a565b610a40565b005b5f7f80ac58cd000000000000000000000000000000000000000000000000000000007bffffffffffffffffffffffffffffffffffffffffffffffffffffffff1916827bffffffffffffffffffffffffffffffffffffffffffffffffffffffff1916148061049657507f5b5e139f000000000000000000000000000000000000000000000000000000007bffffffffffffffffffffffffffffffffffffffffffffffffffffffff1916827bffffffffffffffffffffffffffffffffffffffffffffffffffffffff1916145b806104a657506104a582610ac4565b5b9050919050565b60605f80546104bb90611fdb565b80601f01602080910402602001604051908101604052809291908181526020018280546104e790611fdb565b80156105325780601f1061050957610100808354040283529160200191610532565b820191905f5260205f20905b81548152906001019060200180831161051557829003601f168201915b5050505050905090565b5f61054682610b2d565b5061055082610bb3565b9050919050565b6105698282610564610bec565b610bf3565b5050565b5f610576610c05565b600160075f8282546105889190612038565b925050819055505f600754905060405180604001604052808581526020018481525060085f8381526020019081526020015f205f820151815f0155602082015181600101559050506105da8582610c8c565b809150509392505050565b5f73ffffffffffffffffffffffffffffffffffffffff168273ffffffffffffffffffffffffffffffffffffffff1603610655575f6040517f64a0ae9200000000000000000000000000000000000000000000000000000000815260040161064c9190611bc1565b60405180910390fd5b5f6106688383610663610bec565b610ca9565b90508373ffffffffffffffffffffffffffffffffffffffff168173ffffffffffffffffffffffffffffffffffffffff16146106de578382826040517f64283d7b0000000000000000000000000000000000000000000000000000000081526004016106d59392919061206b565b60405180910390fd5b50505050565b6106fe83838360405180602001604052805f815250610927565b505050565b5f61070d82610b2d565b9050919050565b5f5f73ffffffffffffffffffffffffffffffffffffffff168273ffffffffffffffffffffffffffffffffffffffff1603610785575f6040517f89c62b6400000000000000000000000000000000000000000000000000000000815260040161077c9190611bc1565b60405180910390fd5b60035f8373ffffffffffffffffffffffffffffffffffffffff1673ffffffffffffffffffffffffffffffffffffffff1681526020019081526020015f20549050919050565b6107d2610c05565b6107db5f610eb4565b565b6107e5610c05565b60085f8281526020019081526020015f205f5f82015f9055600182015f9055505061080f81610f77565b50565b5f5f5f60085f8581526020019081526020015f206040518060400160405290815f82015481526020016001820154815250509050805f015181602001519250925050915091565b5f60065f9054906101000a900473ffffffffffffffffffffffffffffffffffffffff16905090565b60606001805461089090611fdb565b80601f01602080910402602001604051908101604052809291908181526020018280546108bc90611fdb565b80156109075780601f106108de57610100808354040283529160200191610907565b820191905f5260205f20905b8154815290600101906020018083116108ea57829003601f168201915b5050505050905090565b61092361091c610bec565b8383610ff9565b5050565b6109328484846105e5565b61094661093d610bec565b85858585611162565b50505050565b606061095782610b2d565b505f61096161130e565b90505f81511161097f5760405180602001604052805f8152506109aa565b8061098984611324565b60405160200161099a9291906120da565b6040516020818303038152906040525b915050919050565b5f60055f8473ffffffffffffffffffffffffffffffffffffffff1673ffffffffffffffffffffffffffffffffffffffff1681526020019081526020015f205f8373ffffffffffffffffffffffffffffffffffffffff1673ffffffffffffffffffffffffffffffffffffffff1681526020019081526020015f205f9054906101000a900460ff16905092915050565b610a48610c05565b5f73ffffffffffffffffffffffffffffffffffffffff168173ffffffffffffffffffffffffffffffffffffffff1603610ab8575f6040517f1e4fbdf7000000000000000000000000000000000000000000000000000000008152600401610aaf9190611bc1565b60405180910390fd5b610ac181610eb4565b50565b5f7f01ffc9a7000000000000000000000000000000000000000000000000000000007bffffffffffffffffffffffffffffffffffffffffffffffffffffffff1916827bffffffffffffffffffffffffffffffffffffffffffffffffffffffff1916149050919050565b5f5f610b38836113ee565b90505f73ffffffffffffffffffffffffffffffffffffffff168173ffffffffffffffffffffffffffffffffffffffff1603610baa57826040517f7e273289000000000000000000000000000000000000000000000000000000008152600401610ba19190611ca1565b60405180910390fd5b80915050919050565b5f60045f8381526020019081526020015f205f9054906101000a900473ffffffffffffffffffffffffffffffffffffffff169050919050565b5f33905090565b610c008383836001611427565b505050565b610c0d610bec565b73ffffffffffffffffffffffffffffffffffffffff16610c2b610859565b73ffffffffffffffffffffffffffffffffffffffff1614610c8a57610c4e610bec565b6040517f118cdaa7000000000000000000000000000000000000000000000000000000008152600401610c819190611bc1565b60405180910390fd5b565b610ca5828260405180602001604052805f8152506115e6565b5050565b5f5f610cb4846113ee565b90505f73ffffffffffffffffffffffffffffffffffffffff168373ffffffffffffffffffffffffffffffffffffffff1614610cf557610cf4818486611609565b5b5f73ffffffffffffffffffffffffffffffffffffffff168173ffffffffffffffffffffffffffffffffffffffff1614610d8057610d345f855f5f611427565b600160035f8373ffffffffffffffffffffffffffffffffffffffff1673ffffffffffffffffffffffffffffffffffffffff1681526020019081526020015f205f82825403925050819055505b5f73ffffffffffffffffffffffffffffffffffffffff168573ffffffffffffffffffffffffffffffffffffffff1614610dff57600160035f8773ffffffffffffffffffffffffffffffffffffffff1673ffffffffffffffffffffffffffffffffffffffff1681526020019081526020015f205f82825401925050819055505b8460025f8681526020019081526020015f205f6101000a81548173ffffffffffffffffffffffffffffffffffffffff021916908373ffffffffffffffffffffffffffffffffffffffff160217905550838573ffffffffffffffffffffffffffffffffffffffff168273ffffffffffffffffffffffffffffffffffffffff167fddf252ad1be2c89b69c2b068fc378daa952ba7f163c4a11628f55a4df523b3ef60405160405180910390a4809150509392505050565b5f60065f9054906101000a900473ffffffffffffffffffffffffffffffffffffffff1690508160065f6101000a81548173ffffffffffffffffffffffffffffffffffffffff021916908373ffffffffffffffffffffffffffffffffffffffff1602179055508173ffffffffffffffffffffffffffffffffffffffff168173ffffffffffffffffffffffffffffffffffffffff167f8be0079c531659141344cd1fd0a4f28419497f9722a3daafe3b4186f6b6457e060405160405180910390a35050565b5f610f835f835f610ca9565b90505f73ffffffffffffffffffffffffffffffffffffffff168173ffffffffffffffffffffffffffffffffffffffff1603610ff557816040517f7e273289000000000000000000000000000000000000000000000000000000008152600401610fec9190611ca1565b60405180910390fd5b5050565b5f73ffffffffffffffffffffffffffffffffffffffff168273ffffffffffffffffffffffffffffffffffffffff160361106957816040517f5b08ba180000000000000000000000000000000000000000000000000000000081526004016110609190611bc1565b60405180910390fd5b8060055f8573ffffffffffffffffffffffffffffffffffffffff1673ffffffffffffffffffffffffffffffffffffffff1681526020019081526020015f205f8473ffffffffffffffffffffffffffffffffffffffff1673ffffffffffffffffffffffffffffffffffffffff1681526020019081526020015f205f6101000a81548160ff0219169083151502179055508173ffffffffffffffffffffffffffffffffffffffff168373ffffffffffffffffffffffffffffffffffffffff167f17307eab39ab6107e8899845ad3d59bd9653f200f220920489ca2b5937696c31836040516111559190611a7b565b60405180910390a3505050565b5f8373ffffffffffffffffffffffffffffffffffffffff163b1115611307578273ffffffffffffffffffffffffffffffffffffffff1663150b7a02868685856040518563ffffffff1660e01b81526004016111c0949392919061214f565b6020604051808303815f875af19250505080156111fb57506040513d601f19601f820116820180604052508101906111f891906121ad565b60015b61127c573d805f8114611229576040519150601f19603f3d011682016040523d82523d5f602084013e61122e565b606091505b505f81510361127457836040517f64a0ae9200000000000000000000000000000000000000000000000000000000815260040161126b9190611bc1565b60405180910390fd5b805160208201fd5b63150b7a0260e01b7bffffffffffffffffffffffffffffffffffffffffffffffffffffffff1916817bffffffffffffffffffffffffffffffffffffffffffffffffffffffff19161461130557836040517f64a0ae920000000000000000000000000000000000000000000000000000000081526004016112fc9190611bc1565b60405180910390fd5b505b5050505050565b606060405180602001604052805f815250905090565b60605f6001611332846116cc565b0190505f8167ffffffffffffffff8111156113505761134f611dcc565b5b6040519080825280601f01601f1916602001820160405280156113825781602001600182028036833780820191505090505b5090505f82602083010190505b6001156113e3578080600190039150507f3031323334353637383961626364656600000000000000000000000000000000600a86061a8153600a85816113d8576113d76121d8565b5b0494505f850361138f575b819350505050919050565b5f60025f8381526020019081526020015f205f9054906101000a900473ffffffffffffffffffffffffffffffffffffffff169050919050565b808061145f57505f73ffffffffffffffffffffffffffffffffffffffff168273ffffffffffffffffffffffffffffffffffffffff1614155b15611591575f61146e84610b2d565b90505f73ffffffffffffffffffffffffffffffffffffffff168373ffffffffffffffffffffffffffffffffffffffff16141580156114d857508273ffffffffffffffffffffffffffffffffffffffff168173ffffffffffffffffffffffffffffffffffffffff1614155b80156114eb57506114e981846109b2565b155b1561152d57826040517fa9fbf51f0000000000000000000000000000000000000000000000000000000081526004016115249190611bc1565b60405180910390fd5b811561158f57838573ffffffffffffffffffffffffffffffffffffffff168273ffffffffffffffffffffffffffffffffffffffff167f8c5be1e5ebec7d5bd14f71427d1e84f3dd0314c0f7b2291e5b200ac8c7c3b92560405160405180910390a45b505b8360045f8581526020019081526020015f205f6101000a81548173ffffffffffffffffffffffffffffffffffffffff021916908373ffffffffffffffffffffffffffffffffffffffff16021790555050505050565b6115f0838361181d565b6116046115fb610bec565b5f858585611162565b505050565b611614838383611910565b6116c7575f73ffffffffffffffffffffffffffffffffffffffff168373ffffffffffffffffffffffffffffffffffffffff160361168857806040517f7e27328900000000000000000000000000000000000000000000000000000000815260040161167f9190611ca1565b60405180910390fd5b81816040517f177e802f0000000000000000000000000000000000000000000000000000000081526004016116be929190612205565b60405180910390fd5b505050565b5f5f5f90507a184f03e93ff9f4daa797ed6e38ed64bf6a1f0100000000000000008310611728577a184f03e93ff9f4daa797ed6e38ed64bf6a1f010000000000000000838161171e5761171d6121d8565b5b0492506040810190505b6d04ee2d6d415b85acef81000000008310611765576d04ee2d6d415b85acef8100000000838161175b5761175a6121d8565b5b0492506020810190505b662386f26fc10000831061179457662386f26fc10000838161178a576117896121d8565b5b0492506010810190505b6305f5e10083106117bd576305f5e10083816117b3576117b26121d8565b5b0492506008810190505b61271083106117e25761271083816117d8576117d76121d8565b5b0492506004810190505b6064831061180557606483816117fb576117fa6121d8565b5b0492506002810190505b600a8310611814576001810190505b80915050919050565b5f73ffffffffffffffffffffffffffffffffffffffff168273ffffffffffffffffffffffffffffffffffffffff160361188d575f6040517f64a0ae920000000000000000000000000000000000000000000000000000000081526004016118849190611bc1565b60405180910390fd5b5f61189983835f610ca9565b90505f73ffffffffffffffffffffffffffffffffffffffff168173ffffffffffffffffffffffffffffffffffffffff161461190b575f6040517f73c6ac6e0000000000000000000000000000000000000000000000000000000081526004016119029190611bc1565b60405180910390fd5b505050565b5f5f73ffffffffffffffffffffffffffffffffffffffff168373ffffffffffffffffffffffffffffffffffffffff16141580156119c757508273ffffffffffffffffffffffffffffffffffffffff168473ffffffffffffffffffffffffffffffffffffffff161480611988575061198784846109b2565b5b806119c657508273ffffffffffffffffffffffffffffffffffffffff166119ae83610bb3565b73ffffffffffffffffffffffffffffffffffffffff16145b5b90509392505050565b5f604051905090565b5f5ffd5b5f5ffd5b5f7fffffffff0000000000000000000000000000000000000000000000000000000082169050919050565b611a15816119e1565b8114611a1f575f5ffd5b50565b5f81359050611a3081611a0c565b92915050565b5f60208284031215611a4b57611a4a6119d9565b5b5f611a5884828501611a22565b91505092915050565b5f8115159050919050565b611a7581611a61565b82525050565b5f602082019050611a8e5f830184611a6c565b92915050565b5f81519050919050565b5f82825260208201905092915050565b8281835e5f83830152505050565b5f601f19601f8301169050919050565b5f611ad682611a94565b611ae08185611a9e565b9350611af0818560208601611aae565b611af981611abc565b840191505092915050565b5f6020820190508181035f830152611b1c8184611acc565b905092915050565b5f819050919050565b611b3681611b24565b8114611b40575f5ffd5b50565b5f81359050611b5181611b2d565b92915050565b5f60208284031215611b6c57611b6b6119d9565b5b5f611b7984828501611b43565b91505092915050565b5f73ffffffffffffffffffffffffffffffffffffffff82169050919050565b5f611bab82611b82565b9050919050565b611bbb81611ba1565b82525050565b5f602082019050611bd45f830184611bb2565b92915050565b611be381611ba1565b8114611bed575f5ffd5b50565b5f81359050611bfe81611bda565b92915050565b5f5f60408385031215611c1a57611c196119d9565b5b5f611c2785828601611bf0565b9250506020611c3885828601611b43565b9150509250929050565b5f5f5f60608486031215611c5957611c586119d9565b5b5f611c6686828701611bf0565b9350506020611c7786828701611b43565b9250506040611c8886828701611b43565b9150509250925092565b611c9b81611b24565b82525050565b5f602082019050611cb45f830184611c92565b92915050565b5f5f5f60608486031215611cd157611cd06119d9565b5b5f611cde86828701611bf0565b9350506020611cef86828701611bf0565b9250506040611d0086828701611b43565b9150509250925092565b5f60208284031215611d1f57611d1e6119d9565b5b5f611d2c84828501611bf0565b91505092915050565b5f604082019050611d485f830185611c92565b611d556020830184611c92565b9392505050565b611d6581611a61565b8114611d6f575f5ffd5b50565b5f81359050611d8081611d5c565b92915050565b5f5f60408385031215611d9c57611d9b6119d9565b5b5f611da985828601611bf0565b9250506020611dba85828601611d72565b9150509250929050565b5f5ffd5b5f5ffd5b7f4e487b71000000000000000000000000000000000000000000000000000000005f52604160045260245ffd5b611e0282611abc565b810181811067ffffffffffffffff82111715611e2157611e20611dcc565b5b80604052505050565b5f611e336119d0565b9050611e3f8282611df9565b919050565b5f67ffffffffffffffff821115611e5e57611e5d611dcc565b5b611e6782611abc565b9050602081019050919050565b828183375f83830152505050565b5f611e94611e8f84611e44565b611e2a565b905082815260208101848484011115611eb057611eaf611dc8565b5b611ebb848285611e74565b509392505050565b5f82601f830112611ed757611ed6611dc4565b5b8135611ee7848260208601611e82565b91505092915050565b5f5f5f5f60808587031215611f0857611f076119d9565b5b5f611f1587828801611bf0565b9450506020611f2687828801611bf0565b9350506040611f3787828801611b43565b925050606085013567ffffffffffffffff811115611f5857611f576119dd565b5b611f6487828801611ec3565b91505092959194509250565b5f5f60408385031215611f8657611f856119d9565b5b5f611f9385828601611bf0565b9250506020611fa485828601611bf0565b9150509250929050565b7f4e487b71000000000000000000000000000000000000000000000000000000005f52602260045260245ffd5b5f6002820490506001821680611ff257607f821691505b60208210810361200557612004611fae565b5b50919050565b7f4e487b71000000000000000000000000000000000000000000000000000000005f52601160045260245ffd5b5f61204282611b24565b915061204d83611b24565b92508282019050808211156120655761206461200b565b5b92915050565b5f60608201905061207e5f830186611bb2565b61208b6020830185611c92565b6120986040830184611bb2565b949350505050565b5f81905092915050565b5f6120b482611a94565b6120be81856120a0565b93506120ce818560208601611aae565b80840191505092915050565b5f6120e582856120aa565b91506120f182846120aa565b91508190509392505050565b5f81519050919050565b5f82825260208201905092915050565b5f612121826120fd565b61212b8185612107565b935061213b818560208601611aae565b61214481611abc565b840191505092915050565b5f6080820190506121625f830187611bb2565b61216f6020830186611bb2565b61217c6040830185611c92565b818103606083015261218e8184612117565b905095945050505050565b5f815190506121a781611a0c565b92915050565b5f602082840312156121c2576121c16119d9565b5b5f6121cf84828501612199565b91505092915050565b7f4e487b71000000000000000000000000000000000000000000000000000000005f52601260045260245ffd5b5f6040820190506122185f830185611bb2565b6122256020830184611c92565b939250505056fea26469706673582212206948fad78dd7f9d58194add32b5bb68934f44c77a01429e1eaff7cc2185d660d64736f6c634300081c0033",
  "linkReferences": {},
  "deployedLinkReferences": {},
  "immutableReferences": {
    "9901": [
      {
        "length": 32,
        "start": 2809
      },
      {
        "length": 32,
        "start": 2972
      },
      {
        "length": 32,
        "start": 3045
      },
      {
        "length": 32,
        "start": 3343
      },
      {
        "length": 32,
        "start": 3809
      },
      {
        "length": 32,
        "start": 4740
      }
    ]
  },
  "inputSourceName": "project/contracts/LiquidStakingVault.sol",
  "buildInfoId": "solc-0_8_28-88905df3f8e07b92ca7c6c093b89d9af3b3b0c73"
}