{
  "_format": "hh3-artifact-1",
  "contractName": "VoteVerifier",
  "sourceName": "contracts/VoteVerifier.sol",
  "abi": [
    {
      "inputs": [
        {
          "internalType": "uint256",
          "name": "chainId",
          "type": "uint256"
        }
      ],
      "stateMutability": "nonpayable",
      "type": "constructor"
    },
    {
      "inputs": [],
      "name": "ECDSAInvalidSignature",
      "type": "error"
    },
    {
      "inputs": [
        {
          "internalType": "uint256",
          "name": "length",
          "type": "uint256"
        }
      ],
      "name": "ECDSAInvalidSignatureLength",
      "type": "error"
    },
    {
      "inputs": [
        {
          "internalType": "bytes32",
          "name": "s",
          "type": "bytes32"
        }
      ],
      "name": "ECDSAInvalidSignatureS",
      "type": "error"
    },
    {
      "inputs": [
        {
          "internalType": "address",
          "name": "owner",
          "type": "address"
        }
      ],
      "name": "OwnableInvalidOwner",
      "type": "error"
    },
    {
      "inputs": [
        {
          "internalType": "address",
          "name": "account",
          "type": "address"
        }
      ],
      "name": "OwnableUnauthorizedAccount",
      "type": "error"
    },
    {
      "inputs": [],
      "name": "ReentrancyGuardReentrantCall",
      "type": "error"
    },
    {
      "anonymous": false,
      "inputs": [
        {
          "indexed": true,
          "internalType": "address",
          "name": "previousOwner",
          "type": "address"
        },
        {
          "indexed": true,
          "internalType": "address",
          "name": "newOwner",
          "type": "address"
        }
      ],
      "name": "OwnershipTransferred",
      "type": "event"
    },
    {
      "anonymous": false,
      "inputs": [
        {
          "indexed": true,
          "internalType": "uint256",
          "name": "proposalId",
          "type": "uint256"
        },
        {
          "indexed": false,
          "internalType": "bytes32",
          "name": "actionDataHash",
          "type": "bytes32"
        },
        {
          "indexed": false,
          "internalType": "uint256",
          "name": "forVotes",
          "type": "uint256"
        },
        {
          "indexed": false,
          "internalType": "uint256",
          "name": "threshold",
          "type": "uint256"
        }
      ],
      "name": "ProposalPassed",
      "type": "event"
    },
    {
      "anonymous": false,
      "inputs": [
        {
          "indexed": true,
          "internalType": "uint256",
          "name": "proposalId",
          "type": "uint256"
        },
        {
          "indexed": false,
          "internalType": "bytes32",
          "name": "powerRoot",
          "type": "bytes32"
        },
        {
          "indexed": false,
          "internalType": "bytes32",
          "name": "actionDataHash",
          "type": "bytes32"
        },
        {
          "indexed": false,
          "internalType": "uint256",
          "name": "threshold",
          "type": "uint256"
        }
      ],
      "name": "ProposalRegistered",
      "type": "event"
    },
    {
      "anonymous": false,
      "inputs": [
        {
          "indexed": true,
          "internalType": "uint256",
          "name": "proposalId",
          "type": "uint256"
        },
        {
          "indexed": true,
          "internalType": "address",
          "name": "voter",
          "type": "address"
        },
        {
          "indexed": false,
          "internalType": "uint8",
          "name": "support",
          "type": "uint8"
        },
        {
          "indexed": false,
          "internalType": "uint256",
          "name": "power",
          "type": "uint256"
        }
      ],
      "name": "VoteCounted",
      "type": "event"
    },
    {
      "inputs": [],
      "name": "DOMAIN_SEPARATOR",
      "outputs": [
        {
          "internalType": "bytes32",
          "name": "",
          "type": "bytes32"
        }
      ],
      "stateMutability": "view",
      "type": "function"
    },
    {
      "inputs": [],
      "name": "NAME",
      "outputs": [
        {
          "internalType": "string",
          "name": "",
          "type": "string"
        }
      ],
      "stateMutability": "view",
      "type": "function"
    },
    {
      "inputs": [],
      "name": "VERSION",
      "outputs": [
        {
          "internalType": "string",
          "name": "",
          "type": "string"
        }
      ],
      "stateMutability": "view",
      "type": "function"
    },
    {
      "inputs": [],
      "name": "VOTE_TYPEHASH",
      "outputs": [
        {
          "internalType": "bytes32",
          "name": "",
          "type": "bytes32"
        }
      ],
      "stateMutability": "view",
      "type": "function"
    },
    {
      "inputs": [
        {
          "internalType": "uint256",
          "name": "proposalId",
          "type": "uint256"
        }
      ],
      "name": "adminMarkPassed",
      "outputs": [],
      "stateMutability": "nonpayable",
      "type": "function"
    },
    {
      "inputs": [
        {
          "internalType": "uint256",
          "name": "proposalId",
          "type": "uint256"
        }
      ],
      "name": "getTally",
      "outputs": [
        {
          "internalType": "uint256",
          "name": "forVotes",
          "type": "uint256"
        },
        {
          "internalType": "uint256",
          "name": "againstVotes",
          "type": "uint256"
        },
        {
          "internalType": "uint256",
          "name": "abstainVotes",
          "type": "uint256"
        }
      ],
      "stateMutability": "view",
      "type": "function"
    },
    {
      "inputs": [
        {
          "internalType": "uint256",
          "name": "",
          "type": "uint256"
        },
        {
          "internalType": "address",
          "name": "",
          "type": "address"
        }
      ],
      "name": "hasVoted",
      "outputs": [
        {
          "internalType": "bool",
          "name": "",
          "type": "bool"
        }
      ],
      "stateMutability": "view",
      "type": "function"
    },
    {
      "inputs": [
        {
          "internalType": "uint256",
          "name": "proposalId",
          "type": "uint256"
        }
      ],
      "name": "isPassed",
      "outputs": [
        {
          "internalType": "bool",
          "name": "",
          "type": "bool"
        }
      ],
      "stateMutability": "view",
      "type": "function"
    },
    {
      "inputs": [],
      "name": "owner",
      "outputs": [
        {
          "internalType": "address",
          "name": "",
          "type": "address"
        }
      ],
      "stateMutability": "view",
      "type": "function"
    },
    {
      "inputs": [
        {
          "internalType": "uint256",
          "name": "",
          "type": "uint256"
        },
        {
          "internalType": "uint8",
          "name": "",
          "type": "uint8"
        }
      ],
      "name": "proposalVotes",
      "outputs": [
        {
          "internalType": "uint256",
          "name": "",
          "type": "uint256"
        }
      ],
      "stateMutability": "view",
      "type": "function"
    },
    {
      "inputs": [
        {
          "internalType": "uint256",
          "name": "",
          "type": "uint256"
        }
      ],
      "name": "proposals",
      "outputs": [
        {
          "internalType": "bytes32",
          "name": "powerRoot",
          "type": "bytes32"
        },
        {
          "internalType": "bytes32",
          "name": "actionDataHash",
          "type": "bytes32"
        },
        {
          "internalType": "uint256",
          "name": "threshold",
          "type": "uint256"
        },
        {
          "internalType": "bool",
          "name": "exists",
          "type": "bool"
        },
        {
          "internalType": "bool",
          "name": "passed",
          "type": "bool"
        }
      ],
      "stateMutability": "view",
      "type": "function"
    },
    {
      "inputs": [
        {
          "internalType": "uint256",
          "name": "proposalId",
          "type": "uint256"
        },
        {
          "internalType": "bytes32",
          "name": "powerRoot",
          "type": "bytes32"
        },
        {
          "internalType": "bytes32",
          "name": "actionDataHash",
          "type": "bytes32"
        },
        {
          "internalType": "uint256",
          "name": "threshold",
          "type": "uint256"
        }
      ],
      "name": "registerProposal",
      "outputs": [],
      "stateMutability": "nonpayable",
      "type": "function"
    },
    {
      "inputs": [],
      "name": "renounceOwnership",
      "outputs": [],
      "stateMutability": "nonpayable",
      "type": "function"
    },
    {
      "inputs": [
        {
          "internalType": "uint256",
          "name": "proposalId",
          "type": "uint256"
        },
        {
          "components": [
            {
              "internalType": "uint8",
              "name": "support",
              "type": "uint8"
            },
            {
              "internalType": "uint256",
              "name": "nonce",
              "type": "uint256"
            },
            {
              "internalType": "uint256",
              "name": "deadline",
              "type": "uint256"
            },
            {
              "internalType": "uint256",
              "name": "power",
              "type": "uint256"
            },
            {
              "internalType": "bytes",
              "name": "signature",
              "type": "bytes"
            },
            {
              "internalType": "bytes32[]",
              "name": "merkleProof",
              "type": "bytes32[]"
            }
          ],
          "internalType": "struct VoteVerifier.VoteData[]",
          "name": "votes",
          "type": "tuple[]"
        }
      ],
      "name": "submitVotes",
      "outputs": [],
      "stateMutability": "nonpayable",
      "type": "function"
    },
    {
      "inputs": [
        {
          "internalType": "address",
          "name": "newOwner",
          "type": "address"
        }
      ],
      "name": "transferOwnership",
      "outputs": [],
      "stateMutability": "nonpayable",
      "type": "function"
    }
  ],
  "bytecode": "0x60a060405234801561000f575f5ffd5b5060405161263838038061263883398181016040528101906100319190610285565b335f73ffffffffffffffffffffffffffffffffffffffff168173ffffffffffffffffffffffffffffffffffffffff16036100a2575f6040517f1e4fbdf700000000000000000000000000000000000000000000000000000000815260040161009991906102ef565b60405180910390fd5b6100b18161018d60201b60201c565b50600180819055507f8b73c3c69bb8fe3d512ecc4cf759cc79239f7b179b0ffacaa9a75d522b39400f6040518060400160405280600e81526020017f4c535420476f7665726e616e6365000000000000000000000000000000000000815250805190602001206040518060400160405280600181526020017f310000000000000000000000000000000000000000000000000000000000000081525080519060200120833060405160200161016a95949392919061032f565b604051602081830303815290604052805190602001206080818152505050610380565b5f5f5f9054906101000a900473ffffffffffffffffffffffffffffffffffffffff169050815f5f6101000a81548173ffffffffffffffffffffffffffffffffffffffff021916908373ffffffffffffffffffffffffffffffffffffffff1602179055508173ffffffffffffffffffffffffffffffffffffffff168173ffffffffffffffffffffffffffffffffffffffff167f8be0079c531659141344cd1fd0a4f28419497f9722a3daafe3b4186f6b6457e060405160405180910390a35050565b5f5ffd5b5f819050919050565b61026481610252565b811461026e575f5ffd5b50565b5f8151905061027f8161025b565b92915050565b5f6020828403121561029a5761029961024e565b5b5f6102a784828501610271565b91505092915050565b5f73ffffffffffffffffffffffffffffffffffffffff82169050919050565b5f6102d9826102b0565b9050919050565b6102e9816102cf565b82525050565b5f6020820190506103025f8301846102e0565b92915050565b5f819050919050565b61031a81610308565b82525050565b61032981610252565b82525050565b5f60a0820190506103425f830188610311565b61034f6020830187610311565b61035c6040830186610311565b6103696060830185610320565b61037660808301846102e0565b9695505050505050565b60805161229961039f5f395f818161036a015261053b01526122995ff3fe608060405234801561000f575f5ffd5b50600436106100f3575f3560e01c80638652297311610095578063ddd7b25411610064578063ddd7b25414610275578063eb0772c914610291578063f2fde38b146102c3578063ffa1ad74146102df576100f3565b806386522973146101ff5780638da5cb5b1461021d578063a3f4df7e1461023b578063b4b292e514610259576100f3565b80633abd44bd116100d15780633abd44bd14610179578063438596321461019557806349403183146101c5578063715018a6146101f5576100f3565b8063013cf08b146100f7578063048fd2ef1461012b5780633644e5151461015b575b5f5ffd5b610111600480360381019061010c9190611518565b6102fd565b604051610122959493929190611584565b60405180910390f35b6101456004803603810190610140919061160b565b610348565b6040516101529190611649565b60405180910390f35b610163610368565b6040516101709190611662565b60405180910390f35b610193600480360381019061018e91906116dc565b61038c565b005b6101af60048036038101906101aa9190611793565b6109e1565b6040516101bc91906117d1565b60405180910390f35b6101df60048036038101906101da9190611518565b610a0b565b6040516101ec91906117d1565b60405180910390f35b6101fd610a35565b005b610207610a48565b6040516102149190611662565b60405180910390f35b610225610a6c565b60405161023291906117f9565b60405180910390f35b610243610a93565b6040516102509190611882565b60405180910390f35b610273600480360381019061026e91906118cc565b610acc565b005b61028f600480360381019061028a9190611518565b610c98565b005b6102ab60048036038101906102a69190611518565b610df4565b6040516102ba93929190611930565b60405180910390f35b6102dd60048036038101906102d89190611965565b610f15565b005b6102e7610f99565b6040516102f49190611882565b60405180910390f35b6002602052805f5260405f205f91509050805f015490806001015490806002015490806003015f9054906101000a900460ff16908060030160019054906101000a900460ff16905085565b6003602052815f5260405f20602052805f5260405f205f91509150505481565b7f000000000000000000000000000000000000000000000000000000000000000081565b610394610fd2565b5f60025f8581526020019081526020015f209050806003015f9054906101000a900460ff166103f8576040517f08c379a00000000000000000000000000000000000000000000000000000000081526004016103ef906119da565b60405180910390fd5b8060030160019054906101000a900460ff161561044a576040517f08c379a000000000000000000000000000000000000000000000000000000000815260040161044190611a42565b60405180910390fd5b5f8383905090505f5f90505b818110156109d0573685858381811061047257610471611a60565b5b90506020028101906104849190611a99565b905080604001354211156104cd576040517f08c379a00000000000000000000000000000000000000000000000000000000081526004016104c490611b0a565b60405180910390fd5b5f7fed0ceb9710d3d105ea11a9b72a74e719f659b94e436152e85e94abd2e99a88a688835f0160208101906105029190611b28565b84602001358560400135604051602001610520959493929190611b62565b6040516020818303038152906040528051906020012090505f7f00000000000000000000000000000000000000000000000000000000000000008260405160200161056c929190611c27565b6040516020818303038152906040528051906020012090505f6105e0828580608001906105999190611c5d565b8080601f0160208091040260200160405190810160405280939291908181526020018383808284375f81840152601f19601f82011690508083019250505050505050611018565b90505f73ffffffffffffffffffffffffffffffffffffffff168173ffffffffffffffffffffffffffffffffffffffff1603610650576040517f08c379a000000000000000000000000000000000000000000000000000000000815260040161064790611d09565b60405180910390fd5b5f818560600135866020013560405160200161066e93929190611d8c565b6040516020818303038152906040528051906020012090506106e2858060a001906106999190611dc8565b808060200260200160405190810160405280939291908181526020018383602002808284375f81840152601f19601f82011690508083019250505050505050895f015483611042565b610721576040517f08c379a000000000000000000000000000000000000000000000000000000000815260040161071890611e74565b60405180910390fd5b60045f8c81526020019081526020015f205f8373ffffffffffffffffffffffffffffffffffffffff1673ffffffffffffffffffffffffffffffffffffffff1681526020019081526020015f205f9054906101000a900460ff16156107ba576040517f08c379a00000000000000000000000000000000000000000000000000000000081526004016107b190611edc565b60405180910390fd5b600160045f8d81526020019081526020015f205f8473ffffffffffffffffffffffffffffffffffffffff1673ffffffffffffffffffffffffffffffffffffffff1681526020019081526020015f205f6101000a81548160ff021916908315150217905550846060013560035f8d81526020019081526020015f205f875f0160208101906108479190611b28565b60ff1660ff1681526020019081526020015f205f8282546108689190611f27565b925050819055508173ffffffffffffffffffffffffffffffffffffffff168b7f61f43e3f2496987f6838cf92e9a683a27b0c1bd986b79da1da7cbe64b4cba029875f0160208101906108ba9190611b28565b88606001356040516108cd929190611f5a565b60405180910390a3876002015460035f8d81526020019081526020015f205f60016002811115610900576108ff611f81565b5b60ff1660ff1681526020019081526020015f2054106109c05760018860030160016101000a81548160ff0219169083151502179055508a7fe5aa569efa048b122ac6000deac1610ed798a336e3e7ac48edee5fe28a063dbc896001015460035f8f81526020019081526020015f205f6001600281111561098357610982611f81565b5b60ff1660ff1681526020019081526020015f20548b600201546040516109ab93929190611fae565b60405180910390a250505050505050506109d4565b5050505050806001019050610456565b5050505b6109dc611058565b505050565b6004602052815f5260405f20602052805f5260405f205f915091509054906101000a900460ff1681565b5f60025f8381526020019081526020015f2060030160019054906101000a900460ff169050919050565b610a3d611061565b610a465f6110e8565b565b7fed0ceb9710d3d105ea11a9b72a74e719f659b94e436152e85e94abd2e99a88a681565b5f5f5f9054906101000a900473ffffffffffffffffffffffffffffffffffffffff16905090565b6040518060400160405280600e81526020017f4c535420476f7665726e616e636500000000000000000000000000000000000081525081565b610ad4611061565b5f8403610b16576040517f08c379a0000000000000000000000000000000000000000000000000000000008152600401610b0d9061202d565b60405180910390fd5b5f5f1b8303610b5a576040517f08c379a0000000000000000000000000000000000000000000000000000000008152600401610b5190612095565b60405180910390fd5b5f5f1b8203610b9e576040517f08c379a0000000000000000000000000000000000000000000000000000000008152600401610b95906120fd565b60405180910390fd5b5f60025f8681526020019081526020015f209050806003015f9054906101000a900460ff1615610c03576040517f08c379a0000000000000000000000000000000000000000000000000000000008152600401610bfa90612165565b60405180910390fd5b83815f01819055508281600101819055508181600201819055506001816003015f6101000a81548160ff0219169083151502179055505f8160030160016101000a81548160ff021916908315150217905550847f8bfc0755e1ff539769f10e6abe87aaa5ed9296fa85641437538076edbf3be1ef858585604051610c8993929190612183565b60405180910390a25050505050565b610ca0611061565b5f60025f8381526020019081526020015f209050806003015f9054906101000a900460ff16610d04576040517f08c379a0000000000000000000000000000000000000000000000000000000008152600401610cfb906119da565b60405180910390fd5b8060030160019054906101000a900460ff1615610d56576040517f08c379a0000000000000000000000000000000000000000000000000000000008152600401610d4d90612202565b60405180910390fd5b60018160030160016101000a81548160ff021916908315150217905550817fe5aa569efa048b122ac6000deac1610ed798a336e3e7ac48edee5fe28a063dbc826001015460035f8681526020019081526020015f205f60016002811115610dc057610dbf611f81565b5b60ff1660ff1681526020019081526020015f20548460020154604051610de893929190611fae565b60405180910390a25050565b5f5f5f5f60025f8681526020019081526020015f209050806003015f9054906101000a900460ff16610e5b576040517f08c379a0000000000000000000000000000000000000000000000000000000008152600401610e52906119da565b60405180910390fd5b60035f8681526020019081526020015f205f60016002811115610e8157610e80611f81565b5b60ff1660ff1681526020019081526020015f2054935060035f8681526020019081526020015f205f5f6002811115610ebc57610ebb611f81565b5b60ff1660ff1681526020019081526020015f2054925060035f8681526020019081526020015f205f600280811115610ef757610ef6611f81565b5b60ff1660ff1681526020019081526020015f20549150509193909250565b610f1d611061565b5f73ffffffffffffffffffffffffffffffffffffffff168173ffffffffffffffffffffffffffffffffffffffff1603610f8d575f6040517f1e4fbdf7000000000000000000000000000000000000000000000000000000008152600401610f8491906117f9565b60405180910390fd5b610f96816110e8565b50565b6040518060400160405280600181526020017f310000000000000000000000000000000000000000000000000000000000000081525081565b60026001540361100e576040517f3ee5aeb500000000000000000000000000000000000000000000000000000000815260040160405180910390fd5b6002600181905550565b5f5f5f5f61102686866111a9565b92509250925061103682826111fe565b82935050505092915050565b5f8261104e8584611360565b1490509392505050565b60018081905550565b6110696113b1565b73ffffffffffffffffffffffffffffffffffffffff16611087610a6c565b73ffffffffffffffffffffffffffffffffffffffff16146110e6576110aa6113b1565b6040517f118cdaa70000000000000000000000000000000000000000000000000000000081526004016110dd91906117f9565b60405180910390fd5b565b5f5f5f9054906101000a900473ffffffffffffffffffffffffffffffffffffffff169050815f5f6101000a81548173ffffffffffffffffffffffffffffffffffffffff021916908373ffffffffffffffffffffffffffffffffffffffff1602179055508173ffffffffffffffffffffffffffffffffffffffff168173ffffffffffffffffffffffffffffffffffffffff167f8be0079c531659141344cd1fd0a4f28419497f9722a3daafe3b4186f6b6457e060405160405180910390a35050565b5f5f5f60418451036111e9575f5f5f602087015192506040870151915060608701515f1a90506111db888285856113b8565b9550955095505050506111f7565b5f600285515f1b9250925092505b9250925092565b5f600381111561121157611210611f81565b5b82600381111561122457611223611f81565b5b031561135c576001600381111561123e5761123d611f81565b5b82600381111561125157611250611f81565b5b03611288576040517ff645eedf00000000000000000000000000000000000000000000000000000000815260040160405180910390fd5b6002600381111561129c5761129b611f81565b5b8260038111156112af576112ae611f81565b5b036112f357805f1c6040517ffce698f70000000000000000000000000000000000000000000000000000000081526004016112ea9190611649565b60405180910390fd5b60038081111561130657611305611f81565b5b82600381111561131957611318611f81565b5b0361135b57806040517fd78bce0c0000000000000000000000000000000000000000000000000000000081526004016113529190611662565b60405180910390fd5b5b5050565b5f5f8290505f5f90505b84518110156113a6576113978286838151811061138a57611389611a60565b5b602002602001015161149f565b9150808060010191505061136a565b508091505092915050565b5f33905090565b5f5f5f7f7fffffffffffffffffffffffffffffff5d576e7357a4501ddfe92f46681b20a0845f1c11156113f4575f600385925092509250611495565b5f6001888888886040515f81526020016040526040516114179493929190612220565b6020604051602081039080840390855afa158015611437573d5f5f3e3d5ffd5b5050506020604051035190505f73ffffffffffffffffffffffffffffffffffffffff168173ffffffffffffffffffffffffffffffffffffffff1603611488575f60015f5f1b93509350935050611495565b805f5f5f1b935093509350505b9450945094915050565b5f8183106114b6576114b182846114c9565b6114c1565b6114c083836114c9565b5b905092915050565b5f825f528160205260405f20905092915050565b5f5ffd5b5f5ffd5b5f819050919050565b6114f7816114e5565b8114611501575f5ffd5b50565b5f81359050611512816114ee565b92915050565b5f6020828403121561152d5761152c6114dd565b5b5f61153a84828501611504565b91505092915050565b5f819050919050565b61155581611543565b82525050565b611564816114e5565b82525050565b5f8115159050919050565b61157e8161156a565b82525050565b5f60a0820190506115975f83018861154c565b6115a4602083018761154c565b6115b1604083018661155b565b6115be6060830185611575565b6115cb6080830184611575565b9695505050505050565b5f60ff82169050919050565b6115ea816115d5565b81146115f4575f5ffd5b50565b5f81359050611605816115e1565b92915050565b5f5f60408385031215611621576116206114dd565b5b5f61162e85828601611504565b925050602061163f858286016115f7565b9150509250929050565b5f60208201905061165c5f83018461155b565b92915050565b5f6020820190506116755f83018461154c565b92915050565b5f5ffd5b5f5ffd5b5f5ffd5b5f5f83601f84011261169c5761169b61167b565b5b8235905067ffffffffffffffff8111156116b9576116b861167f565b5b6020830191508360208202830111156116d5576116d4611683565b5b9250929050565b5f5f5f604084860312156116f3576116f26114dd565b5b5f61170086828701611504565b935050602084013567ffffffffffffffff811115611721576117206114e1565b5b61172d86828701611687565b92509250509250925092565b5f73ffffffffffffffffffffffffffffffffffffffff82169050919050565b5f61176282611739565b9050919050565b61177281611758565b811461177c575f5ffd5b50565b5f8135905061178d81611769565b92915050565b5f5f604083850312156117a9576117a86114dd565b5b5f6117b685828601611504565b92505060206117c78582860161177f565b9150509250929050565b5f6020820190506117e45f830184611575565b92915050565b6117f381611758565b82525050565b5f60208201905061180c5f8301846117ea565b92915050565b5f81519050919050565b5f82825260208201905092915050565b8281835e5f83830152505050565b5f601f19601f8301169050919050565b5f61185482611812565b61185e818561181c565b935061186e81856020860161182c565b6118778161183a565b840191505092915050565b5f6020820190508181035f83015261189a818461184a565b905092915050565b6118ab81611543565b81146118b5575f5ffd5b50565b5f813590506118c6816118a2565b92915050565b5f5f5f5f608085870312156118e4576118e36114dd565b5b5f6118f187828801611504565b9450506020611902878288016118b8565b9350506040611913878288016118b8565b925050606061192487828801611504565b91505092959194509250565b5f6060820190506119435f83018661155b565b611950602083018561155b565b61195d604083018461155b565b949350505050565b5f6020828403121561197a576119796114dd565b5b5f6119878482850161177f565b91505092915050565b7f70726f706f73616c206e6f7420726567697374657265640000000000000000005f82015250565b5f6119c460178361181c565b91506119cf82611990565b602082019050919050565b5f6020820190508181035f8301526119f1816119b8565b9050919050565b7f70726f706f73616c20616c7265616479207061737365640000000000000000005f82015250565b5f611a2c60178361181c565b9150611a37826119f8565b602082019050919050565b5f6020820190508181035f830152611a5981611a20565b9050919050565b7f4e487b71000000000000000000000000000000000000000000000000000000005f52603260045260245ffd5b5f5ffd5b5f5ffd5b5f5ffd5b5f8235600160c003833603038112611ab457611ab3611a8d565b5b80830191505092915050565b7f766f7465206578706972656400000000000000000000000000000000000000005f82015250565b5f611af4600c8361181c565b9150611aff82611ac0565b602082019050919050565b5f6020820190508181035f830152611b2181611ae8565b9050919050565b5f60208284031215611b3d57611b3c6114dd565b5b5f611b4a848285016115f7565b91505092915050565b611b5c816115d5565b82525050565b5f60a082019050611b755f83018861154c565b611b82602083018761155b565b611b8f6040830186611b53565b611b9c606083018561155b565b611ba9608083018461155b565b9695505050505050565b5f81905092915050565b7f19010000000000000000000000000000000000000000000000000000000000005f82015250565b5f611bf1600283611bb3565b9150611bfc82611bbd565b600282019050919050565b5f819050919050565b611c21611c1c82611543565b611c07565b82525050565b5f611c3182611be5565b9150611c3d8285611c10565b602082019150611c4d8284611c10565b6020820191508190509392505050565b5f5f83356001602003843603038112611c7957611c78611a8d565b5b80840192508235915067ffffffffffffffff821115611c9b57611c9a611a91565b5b602083019250600182023603831315611cb757611cb6611a95565b5b509250929050565b7f696e76616c6964207369676e61747572650000000000000000000000000000005f82015250565b5f611cf360118361181c565b9150611cfe82611cbf565b602082019050919050565b5f6020820190508181035f830152611d2081611ce7565b9050919050565b5f8160601b9050919050565b5f611d3d82611d27565b9050919050565b5f611d4e82611d33565b9050919050565b611d66611d6182611758565b611d44565b82525050565b5f819050919050565b611d86611d81826114e5565b611d6c565b82525050565b5f611d978286611d55565b601482019150611da78285611d75565b602082019150611db78284611d75565b602082019150819050949350505050565b5f5f83356001602003843603038112611de457611de3611a8d565b5b80840192508235915067ffffffffffffffff821115611e0657611e05611a91565b5b602083019250602082023603831315611e2257611e21611a95565b5b509250929050565b7f696e76616c6964206d65726b6c652070726f6f660000000000000000000000005f82015250565b5f611e5e60148361181c565b9150611e6982611e2a565b602082019050919050565b5f6020820190508181035f830152611e8b81611e52565b9050919050565b7f616c726561647920766f746564000000000000000000000000000000000000005f82015250565b5f611ec6600d8361181c565b9150611ed182611e92565b602082019050919050565b5f6020820190508181035f830152611ef381611eba565b9050919050565b7f4e487b71000000000000000000000000000000000000000000000000000000005f52601160045260245ffd5b5f611f31826114e5565b9150611f3c836114e5565b9250828201905080821115611f5457611f53611efa565b5b92915050565b5f604082019050611f6d5f830185611b53565b611f7a602083018461155b565b9392505050565b7f4e487b71000000000000000000000000000000000000000000000000000000005f52602160045260245ffd5b5f606082019050611fc15f83018661154c565b611fce602083018561155b565b611fdb604083018461155b565b949350505050565b7f70726f706f73616c49643d3000000000000000000000000000000000000000005f82015250565b5f612017600c8361181c565b915061202282611fe3565b602082019050919050565b5f6020820190508181035f8301526120448161200b565b9050919050565b7f706f776572526f6f743d300000000000000000000000000000000000000000005f82015250565b5f61207f600b8361181c565b915061208a8261204b565b602082019050919050565b5f6020820190508181035f8301526120ac81612073565b9050919050565b7f616374696f6e44617461486173683d30000000000000000000000000000000005f82015250565b5f6120e760108361181c565b91506120f2826120b3565b602082019050919050565b5f6020820190508181035f830152612114816120db565b9050919050565b7f70726f706f73616c2065786973747300000000000000000000000000000000005f82015250565b5f61214f600f8361181c565b915061215a8261211b565b602082019050919050565b5f6020820190508181035f83015261217c81612143565b9050919050565b5f6060820190506121965f83018661154c565b6121a3602083018561154c565b6121b0604083018461155b565b949350505050565b7f616c7265616479207061737365640000000000000000000000000000000000005f82015250565b5f6121ec600e8361181c565b91506121f7826121b8565b602082019050919050565b5f6020820190508181035f830152612219816121e0565b9050919050565b5f6080820190506122335f83018761154c565b6122406020830186611b53565b61224d604083018561154c565b61225a606083018461154c565b9594505050505056fea2646970667358221220bf70a627e51ec04b7c2381eece06d7227cf6076890b2bb63e68fce1fd022176c64736f6c634300081c0033",
  "linkReferences": {},
  "deployedLinkReferences": {},
  "immutableReferences": {
    "10620": [
      {
        "length": 32,
        "start": 874
      },
      {
        "length": 32,
        "start": 1339
      }
    ]
  },
  "inputSourceName": "project/contracts/VoteVerifier.sol",
  "buildInfoId": "solc-0_8_28-88905df3f8e07b92ca7c6c093b89d9af3b3b0c73"
}